:020000040800F2
:1000000000180020CD1800083D1800083F1800080F
:1000100000000000000000000000000000000000E0
:10002000000000000000000000000000411800086F
:1000300000000000000000004318000845180008F8
:100040004D1900084D1900084D1900084D190008F8
:100050004D1900084D1900084D1900084D190008E8
:100060004D1900084D1900084D1800084D190008D9
:100070004D1900084D1900084D1900085D180008B9
:100080004D19000800000000000000004D19000894
:10009000000000004D1900084D1900084D19000816
:1000A000000000004D1900084D1900084D19000806
:1000B0004D190008000000004D1900084D190008F6
:1000C00010B5064C2378002B07D1054B002B02D02E
:1000D000044800E000BF0123237010BD040000208D
:1000E00000000000A8190008044B10B5002B03D035
:1000F0000349044800E000BF10BDC04600000000F6
:1001000008000020A8190008002243088B4274D37D
:1001100003098B425FD3030A8B4244D3030B8B4208
:1001200028D3030C8B420DD3FF22090212BA030C11
:100130008B4202D31212090265D0030B8B4219D3F2
:1001400000E0090AC30B8B4201D3CB03C01A524112
:10015000830B8B4201D38B03C01A5241430B8B425A
:1001600001D34B03C01A5241030B8B4201D30B0343
:10017000C01A5241C30A8B4201D3CB02C01A52416A
:10018000830A8B4201D38B02C01A5241430A8B422D
:1001900001D34B02C01A5241030A8B4201D30B0216
:1001A000C01A5241CDD2C3098B4201D3CB01C01A30
:1001B000524183098B4201D38B01C01A524143093A
:1001C0008B4201D34B01C01A524103098B4201D328
:1001D0000B01C01A5241C3088B4201D3CB00C01A95
:1001E000524183088B4201D38B00C01A524143080D
:1001F0008B4201D34B00C01A5241411A00D2014632
:10020000524110467047FFE701B5002000F006F8A4
:1002100002BDC0460029F7D076E770477047C04658
:1002200010B5040000F0E2FEFA218900FFF76CFF30
:1002300000F060F8012000222100404200F020F888
:10024000002010BD10B5064A136810210B4313603F
:100250000120FFF7E5FF01F061FA002010BDC04664
:1002600000200240024A1368013313607047C04601
:100270004C000020014B18687047C0464C0000201D
:1002800070B5002811DB8408134DC034A4006259F6
:1002900003231840C000FC331E008640B24389018E
:1002A0000B4083401343635170BDC0B20F22024024
:1002B000083A920806329200084BD3185D6803246E
:1002C0002040C000FF2214008440A54389010A4059
:1002D00082402A435A60E7E700E100E000ED00E0D9
:1002E0001F2318401E3B8340014A13607047C046DD
:1002F00000E100E001380A4B98420FD8094A5060EB
:100300000948036A1B021B0AC02109060B4303624A
:100310000023936007331360002070470120FCE73F
:10032000FFFFFF0010E000E000ED00E070B5C56BDE
:100330000124066CB4406C60046863604368102B51
:1003400004D0036899600368DA6070BD03689A603E
:100350000368D960F9E7000010B504000368064A95
:100360009446634418001421FFF7CEFE80002064F9
:10037000024BE36310BDC046F8FFFDBF0000024022
:1003800070B5041E24D021250223435501680B6853
:10039000104A1A40436880680343E06803432069B9
:1003A000034360690343A0690343E06903431343C4
:1003B0000B602000FFF7D0FF0023A362E3622363FA
:1003C0006363A363012262551F32A354002070BDF2
:1003D0000120FCE70FC0FFFF70B504002020205C67
:1003E000012832D02020012525540130205C01282D
:1003F00004D020230022E254022070BD20300135B9
:1004000025540020A063256828680126B043286091
:100410002000FFF78BFFE36A002B0BD022681368E4
:100420000E210B4313602268136801210B431360F4
:100430000020E2E7226813680A210B431360226858
:10044000136806398B431360EDE70220D5E770B5DA
:10045000C36B1A6804682568016C04238B401A4238
:1004600012D06B0710D523689B0603D4236804229F
:1004700093432360C26B0423016C8B405360C36AB7
:10048000002B00D0984770BD02238B401A4218D031
:10049000AB0716D523689B0606D423680A2293432C
:1004A00023602123093AC254C26B0223016C8B40A2
:1004B000536020230022C254836A002BE3D0984764
:1004C000E1E708238B401A42DDD02B07DBD52368F8
:1004D0000E2293432360C26B01231900046CA140D8
:1004E00051608363212283541F330022C254036B63
:1004F000002BC8D09847C6E7F0B5C64600B582B015
:1005000000236EE084683440A446CC68BC40624658
:10051000144384604468AC434A68120901251540BD
:100520009D4025434560C46826408C68BC403443E8
:10053000C4604A68D20053D54A4DAE6901242643AF
:10054000AE61AD692C400194019C9C08A51CAD00D6
:10055000454EAF5903251D40AD000F26AE40B743B1
:100560009026F605B04275D0404EB04274D0404E51
:10057000B0426DD00526AE4035003D430234A400A4
:10058000394EA5513B4C25684246D4432E002640A7
:100590004A68D20302D5424615432E00354D2E60DF
:1005A0006D682E0026404A68920302D542461543E4
:1005B0002E00304D6E60AD682E0026404A68D20293
:1005C00002D5424615432E002A4DAE60ED682C4000
:1005D0004A68920202D542462A431400254AD46052
:1005E00001330A681400DC4038D001259D402A40C0
:1005F0009046F5D04C68022C01D0122C0ED1DC08AC
:100600000834A400275807261E40B6000F22B24027
:1006100097430A69B24016003E43265002685F00C5
:1006200003242600BE40F643324094464A681440F4
:10063000BC406246144304604C68621E012A00D824
:1006400060E7112C00D15DE7122C00D06BE759E771
:10065000022690E700268EE701268CE702B004BC54
:100660009046F0BD00100240000001400004004828
:10067000000800480004014070B5041E61D0352315
:10068000C35C002B49D002223523E2542168CB6998
:100690002D480340CB6123681A622368DD696069D5
:1006A00002284CD0E368002B3DD1012600F08CFBE2
:1006B00080239B0022699A4237D07101FFF724FD05
:1006C00083001B1858006169FFF71EFD05300A21E1
:1006D000FFF71AFD01230340C01A40081B02821EC7
:1006E000FD2A01D9002302202269134322681843FE
:1006F00010626368A2681343E2681343A26913435C
:100700002B438022120113432268D3610023A36389
:1007100035330122E254002070BD34330022C2542C
:1007200001F020F8AFE70226C0E7000A830018189E
:10073000430018006169FFF7E7FC0530C7E70023B5
:10074000CDE70120E8E7C04640F0000010B5040006
:10075000002950D0002A50D03423C35C012B4ED046
:1007600034230120E0540133E35C012B3ED1E161ED
:1007700034330321E1540023A3632168C86907339C
:100780000340032B07D0C96907230B40052B02D078
:100790002284628403E0520092B222846284E36A7B
:1007A000184ADA62E36A184A9A62E36A174A1A63D5
:1007B00022680C32238C9BB2E169E06AFFF70CFEE1
:1007C0002368DA69520504D4D9698022D2000A4329
:1007D000DA6123685A68920703D45A6802210A43EF
:1007E0005A6034230022E254002007E03423002220
:1007F000E254022002E0012000E0012010BD0220AE
:10080000FCE7C046110800081D0800084D08000854
:1008100010B5406A00F0BEFE10BD000010B5436A7E
:1008200002681268920609D419684A6805480240AD
:100830004A6000225A84353201219954180000F090
:10084000D1FE10BDFDFF00007047000010B5406AEA
:100850000268536807490B40536000234384438573
:1008600035330122C254836B073213438363FFF78E
:10087000EBFF10BDFCFF000070B582B00400036800
:10088000DB072BD5B34B5A680C231340042B1DD028
:10089000B04B5A680C231340082B0ED06368012B11
:1008A00041D0002B56D1AB4B1A68AB490A401A60B5
:1008B0001A68AA490A401A603BE0A64B5B68C0224E
:1008C00052021340802252029342E7D1A14B1B688F
:1008D0009B0303D56368002B00D139E223689B0793
:1008E00078D59C4B5B680C221A4262D0994B5A68AF
:1008F0000C231340082B53D0E368002B00D18BE06E
:10090000944A136801210B431360FFF7B3FC050001
:10091000904B1B689B0776D4FFF7ACFC401B02286A
:10092000F6D9032017E28B4A116880235B020B4340
:1009300013606368002B25D0FFF79CFC0500854BF6
:100940001B689B03CAD4FFF795FC401B6428F6D9AB
:10095000032000E2052B09D07E4B1A687E490A402D
:100960001A601A687D490A401A60E2E7794B1968F3
:100970008022D2020A431A601968802252020A4376
:100980001A60D6E7FFF776FC0500724B1B689B03E5
:10099000A4D5FFF76FFC401B6428F6D90320DAE1E9
:1009A0006C4B5B68C02252021340802212029342B9
:1009B000A2D1684B1B689B0704D5E368012B01D0CB
:1009C0000120C8E163490B68F82293432269D200F1
:1009D00013430B6023681B0744D5E369002B2ED01B
:1009E0005C4A536A01210B435362FFF743FC050045
:1009F000584B5B6A9B0735D4FFF73CFC401B022831
:100A0000F6D90320A7E153490B68F82293432269E2
:100A1000D20013430B60DDE74E4A136801218B437C
:100A20001360FFF727FC05004A4B1B689B07D1D5D5
:100A3000FFF720FC401B0228F6D903208BE1454A32
:100A4000536A01218B435362FFF714FC0500414BAD
:100A50005B6A9B0706D5FFF70DFC401B0228F6D901
:100A6000032078E123685B0700D47FE0394BDB6922
:100A7000DB001DD4374AD169802040050143D16194
:100A8000D36903400193019B0125354B1B68DB05AE
:100A900010D5A368012B21D0002B36D12D4B1A6A1B
:100AA00001218A431A621A6A03318A431A621AE0E0
:100AB0000025EAE72A4A116880235B000B43136094
:100AC000FFF7D8FB0600264B1B68DB05E1D4FFF7D8
:100AD000D1FB801B6428F6D903203CE11D4A136A30
:100AE00001210B431362A368002B24D0FFF7C2FB44
:100AF0000600184B1B6A9B0736D4FFF7BBFB801B15
:100B0000184B9842F5D9032025E1052B09D0114B4C
:100B10001A6A01218A431A621A6A03318A431A62E5
:100B2000E1E70C4B1A6A04210A431A621A6A033974
:100B30000A431A62D7E7FFF79DFB0600054B1B6AC5
:100B40009B0711D5FFF796FB801B064B9842F5D902
:100B5000032000E100100240FFFFFEFFFFFFFBFF4C
:100B60000070004088130000012D3AD02368DB0696
:100B700010D56369012B3AD0053358D1784A536BAD
:100B800004218B435363536BF4318B43A169C90038
:100B90000B43536323689B0600D482E0704B5A6872
:100BA0000C2313400C2B60D06D4B5A680C23134060
:100BB000082B53D0236A002B60D0694A516B8023E5
:100BC0005B020B435363FFF755FB0500644B5B6B04
:100BD000DB0366D4FFF74EFB401B0228F6D9032047
:100BE000B9E05F4AD3695F490B40D361BEE75C4B14
:100BF0005A6B04210A435A635A6B03390A435A63F6
:100C0000FFF738FB0500564B5B6B9B0706D4FFF7DD
:100C100031FB401B0228F6D903209CE050494B6B66
:100C2000F8229343A269D20013434B63B2E74C4BC3
:100C30005A6B04210A435A635A6B03398A435A6335
:100C4000FFF718FB0500464B5B6B9B07A2D5FFF730
:100C500011FB401B0228F6D903207CE0404B5B6867
:100C6000C022520213409342A4D13D4B5B6BDB0385
:100C700017D5236A012B14D001206CE0384A536B3E
:100C800039490B405363FFF7F5FA0500344B5B6BB2
:100C9000DB0306D5FFF7EEFA401B0228F6D9032046
:100CA00059E0636A002B55D02D4A51680C220A4046
:100CB000082A52D0022B12D0294A13682B490B4024
:100CC0001360FFF7D7FA0400254B1B689B013DD545
:100CD000FFF7D0FA001B0228F6D903203BE0204A98
:100CE000136822490B401360FFF7C4FA05001C4B40
:100CF0001B689B0106D5FFF7BDFA401B0228F6D9F9
:100D0000032028E0164BDA6A0F218A43216B0A433D
:100D1000DA625A6816490A40E16AA06A01430A4346
:100D20005A601968802252040A431A60FFF7A2FA37
:100D300004000B4B1B689B0106D4FFF79BFA001BBA
:100D40000228F6D9032006E0002004E0002002E09B
:100D5000012000E0002002B070BD0120FBE7C0468A
:100D600000100240FFFFFFEFFFFFFEFFFFFFFFFE4F
:100D7000FF7FC2FF70B586B00D00160002230293FC
:100D800001330493002303938022520001920593C0
:100D90000B4C6269802189020A43626163690B40DE
:100DA0000093009B902001A9C005FFF7A5FB626896
:100DB000044B1A4035432A43626006B070BDC046FA
:100DC00000100240FFFFFF8030B589B004AA214B1C
:100DD000180032C832C2110002680A606A46103335
:100DE00013CB13C21B6813601B4B5A680C231340B0
:100DF000082B08D00C2B2AD0042B01D0174800E078
:100E0000174809B030BD910C0F23194004A8445C69
:100E10001149C96A0B406946C95CC0235B021A408C
:100E200080235B029A4208D0C0235B029A4209D019
:100E30000A48FFF769F96043E3E70948FFF764F9F7
:100E40006043DEE70748FFF75FF96043D9E70548ED
:100E5000D7E7C046C01900080010024000127A000F
:100E60000080BB00006CDC0270B505000C00594B23
:100E70001A68012313408B420BD256490B6801229A
:100E8000934323430B600B681A40A24201D0012018
:100E900070BD2B689B0706D54F4A5368F0218B43E2
:100EA000A9680B4353602B68DB0763D56B68012B84
:100EB00009D0022B28D0032B2CD0474A1268920766
:100EC00005D40120E4E7444A126892037FD54249E1
:100ED0004A680320824313434B60FFF7CBF90600B7
:100EE0006B68012B1CD0022B28D0032B34D03A4B3B
:100EF0005B680C221A423DD0FFF7BCF9801B374BD0
:100F00009842F4D90320C3E7334A12689201DED431
:100F10000120BDE7304A526BD203D8D40120B7E795
:100F20002D4B5A680C231340042B23D0FFF7A2F952
:100F3000801B2A4B9842F3D90320A9E7264B5A6815
:100F40000C231340082B15D0FFF794F9801B234B7B
:100F50009842F3D903209BE71F4B5A680C23134098
:100F60000C2B07D0FFF786F9801B1C4B9842F3D956
:100F700003208DE7174B1A6801231340A3420BD9B6
:100F800014490B680122934323430B600B681A40FA
:100F9000A24201D001207BE72B685B0706D50E4AF1
:100FA00053680F490B40E9680B435360FFF70CFF90
:100FB000094B5A6812090F2313400A4AD35CD840E0
:100FC000094B18600120FFF72BF9002060E7012092
:100FD0005EE7C04600200240001002408813000077
:100FE000FFF8FFFFE019000800000020014B18681F
:100FF0007047C0460000002030B5036A046A01252E
:10100000AC4304628469EF35AC43120122430A24E5
:10101000A34319438261016230BD000030B5036A09
:101020001024A34303628469036A054D2C40120314
:101030002243A024A343090119438261016230BD08
:10104000FF0FFFFF83687022934307221143194368
:10105000816070470368DA6801210A43DA60026838
:1010600013680B4313600020704770477047704748
:10107000704710B5040003681A6992070FD5DA6843
:1010800092070CD5032252421A61012303770368A9
:101090009B699B0763D0FFF7E9FF00232377236851
:1010A0001A69520712D5DA6852070FD50522524243
:1010B0001A610223237723689A69C0239B001A428E
:1010C00053D02000FFF7D2FF0023237723681A694B
:1010D000120710D5DA6812070DD5092252421A619B
:1010E000042323772368DB699B0745D02000FFF7A3
:1010F000BDFF0023237723681A69D20612D5DA6868
:10110000D2060FD5112252421A6108232377236891
:10111000DA69C0239B001A4235D02000FFF7A6FFF2
:101120000023237723681A69D20702D5DA68D20729
:1011300030D423681A69120602D5DA68120630D450
:1011400023681A69520602D5DA68520630D4236839
:101150001A69920602D5DA68920630D410BDFFF7FC
:1011600084FF2000FFF783FF97E72000FFF77DFF54
:101170002000FFF77CFFA7E72000FFF776FF2000A5
:10118000FFF775FFB5E72000FFF76FFF2000FFF7BF
:101190006EFFC5E7022252421A61200000F04AFAAF
:1011A000C7E7812252421A61200000F032F9C7E7F6
:1011B000412252421A612000FFF75AFFC7E721225D
:1011C00052421A61200000F023F9C7E703681E4A63
:1011D000904206D08022D205904202D01B4A904213
:1011E00003D1702293434A681343174A90420FD0A9
:1011F0008022D20590420BD0144A904208D0144A63
:10120000904205D0134A904202D0134A904203D133
:10121000124A1340CA681343802293434A69134316
:1012200003608B68C3620B688362074B984205D0EA
:10123000084B984202D0084B984201D10B690363D6
:10124000012343617047C046002C01400004004068
:10125000002000400044014000480140FFFCFFFF27
:1012600070B5041E14D03D23C35C002B0AD03D256D
:1012700002236355211D2068FFF7A8FF0123635552
:10128000002070BD3C330022C25400F0B9FAEEE7F2
:101290000120F6E730B58468034D2C401B021A4349
:1012A00011432143816030BDFF00FFFF10B50400F2
:1012B0003C23C35C012B00D17FE03C230122C254BC
:1012C00001330132C254026893683D480340936081
:1012D0000B68402B5DD010D9702B43D020D8502BF9
:1012E0004DD0602B36D1CA6849682068FFF796FE5A
:1012F00060212068FFF7A6FE2CE0102B53D008D900
:10130000202B55D0302B25D130212068FFF79AFEB5
:1013100020E0002B1ED100212068FFF793FE19E08A
:1013200080225201934210D080229201934211D127
:10133000CB684A6889682068FFF7ACFF226891682B
:101340008023DB010B43936004E02268936807214C
:101350008B4393603D230122E254013B0022E2547F
:10136000002010BDCB684A6889682068FFF792FFAB
:101370002268936877218B430B439360EAE7CA683E
:1013800049682068FFF738FE50212068FFF75AFEB1
:10139000E0E7CA6849682068FFF72EFE4021206810
:1013A000FFF750FED6E710212068FFF74BFED1E78C
:1013B00020212068FFF746FECCE70220D1E7C04697
:1013C0008800FFFFF0B53C23C35C012B1ED03C22FC
:1013D000012585543D240223035506687368702750
:1013E000BB437360066873680F683B4373600668AD
:1013F000B3688027BB43B3600668B36849680B4392
:10140000B3600555002383540020F0BD0220FCE7A3
:101410007047704770B588B01022002104A800F012
:10142000BBFA1E4B59698020C003014359615A69B8
:1014300002400092009A596980208002014359615C
:101440005A6902400192019A5A698021C9020A43ED
:101450005A615B690B400293029B114B0393022577
:1014600005959026F60503A93000FFF745F8FC2303
:10147000FF33039300240494059503A90948FFF75B
:101480003BF880235B00039304950594069407942E
:1014900003A93000FFF730F808B070BD001002401B
:1014A0000F1E00000004004800B583B0094A5169CE
:1014B000012319435161526913400193019B00229A
:1014C00000210A20FEF7DCFE0A20FEF709FF03B028
:1014D00000BDC0460010024010B50848084B03602C
:1014E00080229200426000238360C3600261054A4B
:1014F00042618361FFF7C0F810BDC0465000002074
:101500000030014080BB000030B587B010220021C0
:1015100002A800F041FA08220021684600F03CFAD7
:101520000E4C8023DB052360002565601023A3603B
:101530007033E3602561A3612000FFF791FE8023F3
:101540005B01029302A92000FFF7B0FE0095019510
:1015500069462000FFF736FF07B030BD8C00002041
:10156000428892B283889BB29A4202D0008880B2AD
:101570007047408880B2FBE70F2303404009F02208
:10158000104018437047032303404008FC221040DA
:101590001843704770B5124C2000FFF7E1FFFFF7CA
:1015A000EBFF0500A01DFFF7DBFFFFF7E5FF2D18A0
:1015B000AD012DB2258220001830FFF7D1FFFFF7D3
:1015C000E2FF050020001E30FFF7CAFFFFF7DBFF38
:1015D0002D18AD012DB2658228230022E25470BD82
:1015E0002000002070B5124C2000FFF7B9FFFFF774
:1015F000C3FF0500A01DFFF7B3FFFFF7BDFF2D18C8
:10160000AD012DB2A58220001830FFF7A9FFFFF72A
:10161000BAFF050020001E30FFF7A2FFFFF7B3FF5F
:101620002D18AD012DB2E58228230022E25470BDB1
:101630002000002010B50F4A2823D35CDBB2072B13
:1016400016D89023DB05186913002821525C0A4C38
:1016500020405200D052094A10695A5CFC24FF34E1
:10166000204052009A1810835A5C0132D2B25A5468
:1016700010BDC046200000200F1E000000040048DE
:1016800010B592B02C22002107A800F085F9102295
:10169000002101A800F080F901230593069302249C
:1016A0000E9480235B020F9380231B03109305A8E5
:1016B000FFF7E2F8072301930294002303930493B6
:1016C000012101A8FFF7D0FB802280219205C904E7
:1016D0000020FFF74FFB12B010BD000010B5FEF761
:1016E000B1FDFFF7CDFFFFF795FEFFF7DDFEFFF73A
:1016F000F3FEFFF709FF0549042210310448FFF704
:1017000025F80448FFF7A6FCFEE7C04620000020AD
:10171000500000208C0000207047000000B583B00E
:101720000F4B996901221143996199690A4000920E
:10173000009ADA69802149050A43DA61DB690B40C6
:101740000193019B0520002201214042FEF798FDF4
:101750000220002201214042FEF792FD03B000BDAD
:101760000010024010B588B004001422002103A824
:1017700000F012F91E4B22689A4201D008B010BD49
:101780001C4B996980204001014399619A6902408C
:101790000192019A5A69802189020A435A615B6960
:1017A0000B400293029BF0230393EE3B04939020A3
:1017B00003A9C005FEF7A0FE0F48104B03601023DD
:1017C0004360002383608022C260803202618022F5
:1017D000D200426120228261C361FEF7D1FD002860
:1017E00003D1054BE3625C62C8E7FFF795FFF8E7BA
:1017F0000030014000100240CC00002030000240C8
:1018000000B583B002688023DB059A4201D003B0A3
:1018100000BD094AD16901231943D161D26913403E
:101820000193019B002200210F20FEF729FD0F20CC
:10183000FEF756FDEBE7C046001002407047FEE79A
:101840007047704710B5FEF70DFD10BD10B502488A
:10185000FEF7FDFD10BDC046CC00002010B50248CB
:10186000FFF707FC10BDC0468C000020114B1A6822
:1018700001210A431A605A680F4802405A601A68E8
:101880000E4802401A601A680D4802401A605A68F1
:101890000C4802405A60DA6A0F208243DA621A6BFF
:1018A000094802401A635A6B8A435A6300229A60BD
:1018B0007047C046001002400CB8FF08FFFFF6FE5C
:1018C000FFFFFBFFFFFFC0FF2CFEFFFF1348854615
:1018D00013480168090E134A914205D11248134971
:1018E000016013481349016013481449144A002346
:1018F00002E0D458C4500433C4188C42F9D3114ABE
:10190000114C002301E013600432A242FBD3FFF725
:10191000ADFF00F01DF8FFF7E1FEFEE70018002024
:10192000040000001F000000181002400100000029
:101930000000014000000000000000200400002022
:10194000001A00080400002010010020FEE700003B
:1019500070B500260C4D0D4C641BA410A64209D195
:10196000002600F021F80A4D0A4C641BA410A64280
:1019700005D170BDB300EB5898470136EEE7B300D0
:10198000EB5898470136F2E7F8190008F8190008F3
:10199000F8190008FC19000803001218934200D13E
:1019A000704719700133F9E7F8B5C046F8BC08BCB8
:1019B0009E467047F8B5C046F8BC08BC9E467047C6
:1019C00002030405060708090A0B0C0D0E0F101080
:1019D0000102030405060708090A0B0C0D0E0F107F
:1019E00000000000000000000102030406070809CF
:0819F0000000000001020304E5
:0419F800E9000008FA
:0419FC00C10000081E
:041A000000127A0056
:04000005080018CD0A
:00000001FF
